{
  "_format": "hh-sol-artifact-1",
  "contractName": "MyEpicGame",
  "sourceName": "contracts/MyEpicGame.sol",
  "abi": [
    {
      "inputs": [
        {
          "internalType": "string[]",
          "name": "characterNames",
          "type": "string[]"
        },
        {
          "internalType": "string[]",
          "name": "characterImageURIs",
          "type": "string[]"
        },
        {
          "internalType": "uint256[]",
          "name": "characterHp",
          "type": "uint256[]"
        },
        {
          "internalType": "uint256[]",
          "name": "characterAttackDmg",
          "type": "uint256[]"
        },
        {
          "internalType": "string[]",
          "name": "characterAbility",
          "type": "string[]"
        },
        {
          "internalType": "string[]",
          "name": "characterUltimate",
          "type": "string[]"
        },
        {
          "internalType": "string",
          "name": "bossName",
          "type": "string"
        },
        {
          "internalType": "string",
          "name": "bossImageURI",
          "type": "string"
        },
        {
          "internalType": "uint256",
          "name": "bossHp",
          "type": "uint256"
        },
        {
          "internalType": "uint256",
          "name": "bossAttackDamage",
          "type": "uint256"
        }
      ],
      "stateMutability": "nonpayable",
      "type": "constructor"
    },
    {
      "anonymous": false,
      "inputs": [
        {
          "indexed": true,
          "internalType": "address",
          "name": "owner",
          "type": "address"
        },
        {
          "indexed": true,
          "internalType": "address",
          "name": "approved",
          "type": "address"
        },
        {
          "indexed": true,
          "internalType": "uint256",
          "name": "tokenId",
          "type": "uint256"
        }
      ],
      "name": "Approval",
      "type": "event"
    },
    {
      "anonymous": false,
      "inputs": [
        {
          "indexed": true,
          "internalType": "address",
          "name": "owner",
          "type": "address"
        },
        {
          "indexed": true,
          "internalType": "address",
          "name": "operator",
          "type": "address"
        },
        {
          "indexed": false,
          "internalType": "bool",
          "name": "approved",
          "type": "bool"
        }
      ],
      "name": "ApprovalForAll",
      "type": "event"
    },
    {
      "anonymous": false,
      "inputs": [
        {
          "indexed": false,
          "internalType": "uint256",
          "name": "newBossHp",
          "type": "uint256"
        },
        {
          "indexed": false,
          "internalType": "uint256",
          "name": "newPlayerHp",
          "type": "uint256"
        }
      ],
      "name": "AttackComplete",
      "type": "event"
    },
    {
      "anonymous": false,
      "inputs": [
        {
          "indexed": false,
          "internalType": "address",
          "name": "sender",
          "type": "address"
        },
        {
          "indexed": false,
          "internalType": "uint256",
          "name": "tokenId",
          "type": "uint256"
        },
        {
          "indexed": false,
          "internalType": "uint256",
          "name": "characterIndex",
          "type": "uint256"
        }
      ],
      "name": "CharacterNFTMinted",
      "type": "event"
    },
    {
      "anonymous": false,
      "inputs": [
        {
          "indexed": true,
          "internalType": "address",
          "name": "from",
          "type": "address"
        },
        {
          "indexed": true,
          "internalType": "address",
          "name": "to",
          "type": "address"
        },
        {
          "indexed": true,
          "internalType": "uint256",
          "name": "tokenId",
          "type": "uint256"
        }
      ],
      "name": "Transfer",
      "type": "event"
    },
    {
      "inputs": [
        {
          "internalType": "address",
          "name": "to",
          "type": "address"
        },
        {
          "internalType": "uint256",
          "name": "tokenId",
          "type": "uint256"
        }
      ],
      "name": "approve",
      "outputs": [],
      "stateMutability": "nonpayable",
      "type": "function"
    },
    {
      "inputs": [],
      "name": "attackBoss",
      "outputs": [],
      "stateMutability": "nonpayable",
      "type": "function"
    },
    {
      "inputs": [
        {
          "internalType": "address",
          "name": "owner",
          "type": "address"
        }
      ],
      "name": "balanceOf",
      "outputs": [
        {
          "internalType": "uint256",
          "name": "",
          "type": "uint256"
        }
      ],
      "stateMutability": "view",
      "type": "function"
    },
    {
      "inputs": [],
      "name": "bigBoss",
      "outputs": [
        {
          "internalType": "string",
          "name": "name",
          "type": "string"
        },
        {
          "internalType": "string",
          "name": "imageURI",
          "type": "string"
        },
        {
          "internalType": "uint256",
          "name": "hp",
          "type": "uint256"
        },
        {
          "internalType": "uint256",
          "name": "maxHp",
          "type": "uint256"
        },
        {
          "internalType": "uint256",
          "name": "attackDamage",
          "type": "uint256"
        }
      ],
      "stateMutability": "view",
      "type": "function"
    },
    {
      "inputs": [],
      "name": "checkIfUserHasNFT",
      "outputs": [
        {
          "components": [
            {
              "internalType": "uint256",
              "name": "characterIndex",
              "type": "uint256"
            },
            {
              "internalType": "string",
              "name": "name",
              "type": "string"
            },
            {
              "internalType": "string",
              "name": "imageURI",
              "type": "string"
            },
            {
              "internalType": "uint256",
              "name": "hp",
              "type": "uint256"
            },
            {
              "internalType": "uint256",
              "name": "maxHp",
              "type": "uint256"
            },
            {
              "internalType": "uint256",
              "name": "attackDamage",
              "type": "uint256"
            },
            {
              "internalType": "string",
              "name": "defaultAbility",
              "type": "string"
            },
            {
              "internalType": "string",
              "name": "ultimateAbility",
              "type": "string"
            }
          ],
          "internalType": "struct MyEpicGame.CharacterAttributes",
          "name": "",
          "type": "tuple"
        }
      ],
      "stateMutability": "view",
      "type": "function"
    },
    {
      "inputs": [],
      "name": "getAllDefaultCharacters",
      "outputs": [
        {
          "components": [
            {
              "internalType": "uint256",
              "name": "characterIndex",
              "type": "uint256"
            },
            {
              "internalType": "string",
              "name": "name",
              "type": "string"
            },
            {
              "internalType": "string",
              "name": "imageURI",
              "type": "string"
            },
            {
              "internalType": "uint256",
              "name": "hp",
              "type": "uint256"
            },
            {
              "internalType": "uint256",
              "name": "maxHp",
              "type": "uint256"
            },
            {
              "internalType": "uint256",
              "name": "attackDamage",
              "type": "uint256"
            },
            {
              "internalType": "string",
              "name": "defaultAbility",
              "type": "string"
            },
            {
              "internalType": "string",
              "name": "ultimateAbility",
              "type": "string"
            }
          ],
          "internalType": "struct MyEpicGame.CharacterAttributes[]",
          "name": "",
          "type": "tuple[]"
        }
      ],
      "stateMutability": "view",
      "type": "function"
    },
    {
      "inputs": [
        {
          "internalType": "uint256",
          "name": "tokenId",
          "type": "uint256"
        }
      ],
      "name": "getApproved",
      "outputs": [
        {
          "internalType": "address",
          "name": "",
          "type": "address"
        }
      ],
      "stateMutability": "view",
      "type": "function"
    },
    {
      "inputs": [],
      "name": "getBigBoss",
      "outputs": [
        {
          "components": [
            {
              "internalType": "string",
              "name": "name",
              "type": "string"
            },
            {
              "internalType": "string",
              "name": "imageURI",
              "type": "string"
            },
            {
              "internalType": "uint256",
              "name": "hp",
              "type": "uint256"
            },
            {
              "internalType": "uint256",
              "name": "maxHp",
              "type": "uint256"
            },
            {
              "internalType": "uint256",
              "name": "attackDamage",
              "type": "uint256"
            }
          ],
          "internalType": "struct MyEpicGame.BigBoss",
          "name": "",
          "type": "tuple"
        }
      ],
      "stateMutability": "view",
      "type": "function"
    },
    {
      "inputs": [
        {
          "internalType": "address",
          "name": "owner",
          "type": "address"
        },
        {
          "internalType": "address",
          "name": "operator",
          "type": "address"
        }
      ],
      "name": "isApprovedForAll",
      "outputs": [
        {
          "internalType": "bool",
          "name": "",
          "type": "bool"
        }
      ],
      "stateMutability": "view",
      "type": "function"
    },
    {
      "inputs": [
        {
          "internalType": "uint256",
          "name": "_characterIndex",
          "type": "uint256"
        }
      ],
      "name": "mintCharacterNFT",
      "outputs": [],
      "stateMutability": "nonpayable",
      "type": "function"
    },
    {
      "inputs": [],
      "name": "name",
      "outputs": [
        {
          "internalType": "string",
          "name": "",
          "type": "string"
        }
      ],
      "stateMutability": "view",
      "type": "function"
    },
    {
      "inputs": [
        {
          "internalType": "uint256",
          "name": "",
          "type": "uint256"
        }
      ],
      "name": "nftHolderAttributes",
      "outputs": [
        {
          "internalType": "uint256",
          "name": "characterIndex",
          "type": "uint256"
        },
        {
          "internalType": "string",
          "name": "name",
          "type": "string"
        },
        {
          "internalType": "string",
          "name": "imageURI",
          "type": "string"
        },
        {
          "internalType": "uint256",
          "name": "hp",
          "type": "uint256"
        },
        {
          "internalType": "uint256",
          "name": "maxHp",
          "type": "uint256"
        },
        {
          "internalType": "uint256",
          "name": "attackDamage",
          "type": "uint256"
        },
        {
          "internalType": "string",
          "name": "defaultAbility",
          "type": "string"
        },
        {
          "internalType": "string",
          "name": "ultimateAbility",
          "type": "string"
        }
      ],
      "stateMutability": "view",
      "type": "function"
    },
    {
      "inputs": [
        {
          "internalType": "address",
          "name": "",
          "type": "address"
        }
      ],
      "name": "nftHolders",
      "outputs": [
        {
          "internalType": "uint256",
          "name": "",
          "type": "uint256"
        }
      ],
      "stateMutability": "view",
      "type": "function"
    },
    {
      "inputs": [
        {
          "internalType": "uint256",
          "name": "tokenId",
          "type": "uint256"
        }
      ],
      "name": "ownerOf",
      "outputs": [
        {
          "internalType": "address",
          "name": "",
          "type": "address"
        }
      ],
      "stateMutability": "view",
      "type": "function"
    },
    {
      "inputs": [
        {
          "internalType": "address",
          "name": "from",
          "type": "address"
        },
        {
          "internalType": "address",
          "name": "to",
          "type": "address"
        },
        {
          "internalType": "uint256",
          "name": "tokenId",
          "type": "uint256"
        }
      ],
      "name": "safeTransferFrom",
      "outputs": [],
      "stateMutability": "nonpayable",
      "type": "function"
    },
    {
      "inputs": [
        {
          "internalType": "address",
          "name": "from",
          "type": "address"
        },
        {
          "internalType": "address",
          "name": "to",
          "type": "address"
        },
        {
          "internalType": "uint256",
          "name": "tokenId",
          "type": "uint256"
        },
        {
          "internalType": "bytes",
          "name": "_data",
          "type": "bytes"
        }
      ],
      "name": "safeTransferFrom",
      "outputs": [],
      "stateMutability": "nonpayable",
      "type": "function"
    },
    {
      "inputs": [
        {
          "internalType": "address",
          "name": "operator",
          "type": "address"
        },
        {
          "internalType": "bool",
          "name": "approved",
          "type": "bool"
        }
      ],
      "name": "setApprovalForAll",
      "outputs": [],
      "stateMutability": "nonpayable",
      "type": "function"
    },
    {
      "inputs": [
        {
          "internalType": "bytes4",
          "name": "interfaceId",
          "type": "bytes4"
        }
      ],
      "name": "supportsInterface",
      "outputs": [
        {
          "internalType": "bool",
          "name": "",
          "type": "bool"
        }
      ],
      "stateMutability": "view",
      "type": "function"
    },
    {
      "inputs": [],
      "name": "symbol",
      "outputs": [
        {
          "internalType": "string",
          "name": "",
          "type": "string"
        }
      ],
      "stateMutability": "view",
      "type": "function"
    },
    {
      "inputs": [
        {
          "internalType": "uint256",
          "name": "_tokenId",
          "type": "uint256"
        }
      ],
      "name": "tokenURI",
      "outputs": [
        {
          "internalType": "string",
          "name": "",
          "type": "string"
        }
      ],
      "stateMutability": "view",
      "type": "function"
    },
    {
      "inputs": [
        {
          "internalType": "address",
          "name": "from",
          "type": "address"
        },
        {
          "internalType": "address",
          "name": "to",
          "type": "address"
        },
        {
          "internalType": "uint256",
          "name": "tokenId",
          "type": "uint256"
        }
      ],
      "name": "transferFrom",
      "outputs": [],
      "stateMutability": "nonpayable",
      "type": "function"
    }
  ],
  "bytecode": "0x60806040523480156200001157600080fd5b506040516200628238038062006282833981810160405281019062000037919062000d0a565b6040518060400160405280600681526020017f4865726f657300000000000000000000000000000000000000000000000000008152506040518060400160405280600481526020017f4845524f000000000000000000000000000000000000000000000000000000008152508160009080519060200190620000bb92919062000a9d565b508060019080519060200190620000d492919062000a9d565b5050506040518060a0016040528085815260200184815260200183815260200183815260200182815250600960008201518160000190805190602001906200011e92919062000a9d565b5060208201518160010190805190602001906200013d92919062000a9d565b50604082015181600201556060820151816003015560808201518160040155905050620002c06040518060600160405280602a815260200162006258602a9139600960000180546200018f906200115d565b80601f0160208091040260200160405190810160405280929190818152602001828054620001bd906200115d565b80156200020e5780601f10620001e2576101008083540402835291602001916200020e565b820191906000526020600020905b815481529060010190602001808311620001f057829003601f168201915b5050505050600960020154600960010180546200022b906200115d565b80601f016020809104026020016040519081016040528092919081815260200182805462000259906200115d565b8015620002aa5780601f106200027e57610100808354040283529160200191620002aa565b820191906000526020600020905b8154815290600101906020018083116200028c57829003601f168201915b50505050506200090660201b620023931760201c565b60005b8a51811015620008de5760076040518061010001604052808381526020018d84815181106200031b577f4e487b7100000000000000000000000000000000000000000000000000000000600052603260045260246000fd5b602002602001015181526020018c848151811062000362577f4e487b7100000000000000000000000000000000000000000000000000000000600052603260045260246000fd5b602002602001015181526020018b8481518110620003a9577f4e487b7100000000000000000000000000000000000000000000000000000000600052603260045260246000fd5b602002602001015181526020018b8481518110620003f0577f4e487b7100000000000000000000000000000000000000000000000000000000600052603260045260246000fd5b602002602001015181526020018a848151811062000437577f4e487b7100000000000000000000000000000000000000000000000000000000600052603260045260246000fd5b602002602001015181526020018984815181106200047e577f4e487b7100000000000000000000000000000000000000000000000000000000600052603260045260246000fd5b60200260200101518152602001888481518110620004c5577f4e487b7100000000000000000000000000000000000000000000000000000000600052603260045260246000fd5b602002602001015181525090806001815401808255809150506001900390600052602060002090600802016000909190919091506000820151816000015560208201518160010190805190602001906200052192919062000a9d565b5060408201518160020190805190602001906200054092919062000a9d565b50606082015181600301556080820151816004015560a0820151816005015560c08201518160060190805190602001906200057d92919062000a9d565b5060e08201518160070190805190602001906200059c92919062000a9d565b505050600060078281548110620005dc577f4e487b7100000000000000000000000000000000000000000000000000000000600052603260045260246000fd5b9060005260206000209060080201604051806101000160405290816000820154815260200160018201805462000612906200115d565b80601f016020809104026020016040519081016040528092919081815260200182805462000640906200115d565b8015620006915780601f10620006655761010080835404028352916020019162000691565b820191906000526020600020905b8154815290600101906020018083116200067357829003601f168201915b50505050508152602001600282018054620006ac906200115d565b80601f0160208091040260200160405190810160405280929190818152602001828054620006da906200115d565b80156200072b5780601f10620006ff576101008083540402835291602001916200072b565b820191906000526020600020905b8154815290600101906020018083116200070d57829003601f168201915b5050505050815260200160038201548152602001600482015481526020016005820154815260200160068201805462000764906200115d565b80601f016020809104026020016040519081016040528092919081815260200182805462000792906200115d565b8015620007e35780601f10620007b757610100808354040283529160200191620007e3565b820191906000526020600020905b815481529060010190602001808311620007c557829003601f168201915b50505050508152602001600782018054620007fe906200115d565b80601f01602080910402602001604051908101604052809291908181526020018280546200082c906200115d565b80156200087d5780601f1062000851576101008083540402835291602001916200087d565b820191906000526020600020905b8154815290600101906020018083116200085f57829003601f168201915b5050505050815250509050620008c66040518060600160405280603d81526020016200621b603d913982602001518360c001518460e00151620009b260201b620024351760201c565b50600181620008d69190620010c0565b9050620002c3565b50620008f6600662000a5e60201b620024d71760201c565b505050505050505050506200124b565b620009ac8484848460405160240162000923949392919062000f7d565b6040516020818303038152906040527f8d142cdd000000000000000000000000000000000000000000000000000000007bffffffffffffffffffffffffffffffffffffffffffffffffffffffff19166020820180517bffffffffffffffffffffffffffffffffffffffffffffffffffffffff838183161783525050505062000a7460201b60201c565b50505050565b62000a5884848484604051602401620009cf949392919062000f14565b6040516020818303038152906040527fde68f20a000000000000000000000000000000000000000000000000000000007bffffffffffffffffffffffffffffffffffffffffffffffffffffffff19166020820180517bffffffffffffffffffffffffffffffffffffffffffffffffffffffff838183161783525050505062000a7460201b60201c565b50505050565b6001816000016000828254019250508190555050565b60008151905060006a636f6e736f6c652e6c6f679050602083016000808483855afa5050505050565b82805462000aab906200115d565b90600052602060002090601f01602090048101928262000acf576000855562000b1b565b82601f1062000aea57805160ff191683800117855562000b1b565b8280016001018555821562000b1b579182015b8281111562000b1a57825182559160200191906001019062000afd565b5b50905062000b2a919062000b2e565b5090565b5b8082111562000b4957600081600090555060010162000b2f565b5090565b600062000b6462000b5e8462001013565b62000fdf565b9050808382526020820190508260005b8581101562000ba8578151850162000b8d888262000cc6565b84526020840193506020830192505060018101905062000b74565b5050509392505050565b600062000bc962000bc38462001042565b62000fdf565b9050808382526020820190508285602086028201111562000be957600080fd5b60005b8581101562000c1d578162000c02888262000cf3565b84526020840193506020830192505060018101905062000bec565b5050509392505050565b600062000c3e62000c388462001071565b62000fdf565b90508281526020810184848401111562000c5757600080fd5b62000c6484828562001127565b509392505050565b600082601f83011262000c7e57600080fd5b815162000c9084826020860162000b4d565b91505092915050565b600082601f83011262000cab57600080fd5b815162000cbd84826020860162000bb2565b91505092915050565b600082601f83011262000cd857600080fd5b815162000cea84826020860162000c27565b91505092915050565b60008151905062000d048162001231565b92915050565b6000806000806000806000806000806101408b8d03121562000d2b57600080fd5b60008b015167ffffffffffffffff81111562000d4657600080fd5b62000d548d828e0162000c6c565b9a505060208b015167ffffffffffffffff81111562000d7257600080fd5b62000d808d828e0162000c6c565b99505060408b015167ffffffffffffffff81111562000d9e57600080fd5b62000dac8d828e0162000c99565b98505060608b015167ffffffffffffffff81111562000dca57600080fd5b62000dd88d828e0162000c99565b97505060808b015167ffffffffffffffff81111562000df657600080fd5b62000e048d828e0162000c6c565b96505060a08b015167ffffffffffffffff81111562000e2257600080fd5b62000e308d828e0162000c6c565b95505060c08b015167ffffffffffffffff81111562000e4e57600080fd5b62000e5c8d828e0162000cc6565b94505060e08b015167ffffffffffffffff81111562000e7a57600080fd5b62000e888d828e0162000cc6565b93505061010062000e9c8d828e0162000cf3565b92505061012062000eb08d828e0162000cf3565b9150509295989b9194979a5092959850565b600062000ecf82620010a4565b62000edb8185620010af565b935062000eed81856020860162001127565b62000ef88162001220565b840191505092915050565b62000f0e816200111d565b82525050565b6000608082019050818103600083015262000f30818762000ec2565b9050818103602083015262000f46818662000ec2565b9050818103604083015262000f5c818562000ec2565b9050818103606083015262000f72818462000ec2565b905095945050505050565b6000608082019050818103600083015262000f99818762000ec2565b9050818103602083015262000faf818662000ec2565b905062000fc0604083018562000f03565b818103606083015262000fd4818462000ec2565b905095945050505050565b6000604051905081810181811067ffffffffffffffff82111715620010095762001008620011f1565b5b8060405250919050565b600067ffffffffffffffff821115620010315762001030620011f1565b5b602082029050602081019050919050565b600067ffffffffffffffff82111562001060576200105f620011f1565b5b602082029050602081019050919050565b600067ffffffffffffffff8211156200108f576200108e620011f1565b5b601f19601f8301169050602081019050919050565b600081519050919050565b600082825260208201905092915050565b6000620010cd826200111d565b9150620010da836200111d565b9250827fffffffffffffffffffffffffffffffffffffffffffffffffffffffffffffffff0382111562001112576200111162001193565b5b828201905092915050565b6000819050919050565b60005b83811015620011475780820151818401526020810190506200112a565b8381111562001157576000848401525b50505050565b600060028204905060018216806200117657607f821691505b602082108114156200118d576200118c620011c2565b5b50919050565b7f4e487b7100000000000000000000000000000000000000000000000000000000600052601160045260246000fd5b7f4e487b7100000000000000000000000000000000000000000000000000000000600052602260045260246000fd5b7f4e487b7100000000000000000000000000000000000000000000000000000000600052604160045260246000fd5b6000601f19601f8301169050919050565b6200123c816200111d565b81146200124857600080fd5b50565b614fc0806200125b6000396000f3fe608060405234801561001057600080fd5b50600436106101375760003560e01c806395d89b41116100b8578063b953084e1161007c578063b953084e1461036b578063c87b56dd14610389578063c8cf27f4146103b9578063d4f24c5b146103d7578063e985e9c5146103e1578063f8b81ef71461041157610137565b806395d89b41146102bc57806398da4c95146102da578063a22cb46514610311578063a9c326791461032d578063b88d4fde1461034f57610137565b806323b872dd116100ff57806323b872dd146101f457806342842e0e146102105780636352211e1461022c57806370a082311461025c5780637df124a11461028c57610137565b806301ffc9a71461013c5780630665f9611461016c57806306fdde031461018a578063081812fc146101a8578063095ea7b3146101d8575b600080fd5b6101566004803603810190610151919061371e565b61042d565b604051610163919061450e565b60405180910390f35b61017461050f565b6040516101819190614908565b60405180910390f35b61019261066b565b60405161019f9190614529565b60405180910390f35b6101c260048036038101906101bd9190613770565b6106fd565b6040516101cf919061444e565b60405180910390f35b6101f260048036038101906101ed91906136e2565b610782565b005b61020e600480360381019061020991906135dc565b61089a565b005b61022a600480360381019061022591906135dc565b6108fa565b005b61024660048036038101906102419190613770565b61091a565b604051610253919061444e565b60405180910390f35b61027660048036038101906102719190613577565b6109cc565b604051610283919061494c565b60405180910390f35b6102a660048036038101906102a19190613577565b610a84565b6040516102b3919061494c565b60405180910390f35b6102c4610a9c565b6040516102d19190614529565b60405180910390f35b6102f460048036038101906102ef9190613770565b610b2e565b604051610308989796959493929190614967565b60405180910390f35b61032b600480360381019061032691906136a6565b610d96565b005b610335610f17565b604051610346959493929190614659565b60405180910390f35b6103696004803603810190610364919061362b565b61104b565b005b6103736110ad565b60405161038091906144ec565b60405180910390f35b6103a3600480360381019061039e9190613770565b61137d565b6040516103b09190614529565b60405180910390f35b6103c16116bd565b6040516103ce919061492a565b60405180910390f35b6103df6119ba565b005b6103fb60048036038101906103f691906135a0565b611d1e565b604051610408919061450e565b60405180910390f35b61042b60048036038101906104269190613770565b611db2565b005b60007f80ac58cd000000000000000000000000000000000000000000000000000000007bffffffffffffffffffffffffffffffffffffffffffffffffffffffff1916827bffffffffffffffffffffffffffffffffffffffffffffffffffffffff191614806104f857507f5b5e139f000000000000000000000000000000000000000000000000000000007bffffffffffffffffffffffffffffffffffffffffffffffffffffffff1916827bffffffffffffffffffffffffffffffffffffffffffffffffffffffff1916145b806105085750610507826124ed565b5b9050919050565b61051761338f565b60096040518060a001604052908160008201805461053490614ce3565b80601f016020809104026020016040519081016040528092919081815260200182805461056090614ce3565b80156105ad5780601f10610582576101008083540402835291602001916105ad565b820191906000526020600020905b81548152906001019060200180831161059057829003601f168201915b505050505081526020016001820180546105c690614ce3565b80601f01602080910402602001604051908101604052809291908181526020018280546105f290614ce3565b801561063f5780601f106106145761010080835404028352916020019161063f565b820191906000526020600020905b81548152906001019060200180831161062257829003601f168201915b505050505081526020016002820154815260200160038201548152602001600482015481525050905090565b60606000805461067a90614ce3565b80601f01602080910402602001604051908101604052809291908181526020018280546106a690614ce3565b80156106f35780601f106106c8576101008083540402835291602001916106f3565b820191906000526020600020905b8154815290600101906020018083116106d657829003601f168201915b5050505050905090565b600061070882612557565b610747576040517f08c379a000000000000000000000000000000000000000000000000000000000815260040161073e90614888565b60405180910390fd5b6004600083815260200190815260200160002060009054906101000a900473ffffffffffffffffffffffffffffffffffffffff169050919050565b600061078d8261091a565b90508073ffffffffffffffffffffffffffffffffffffffff168373ffffffffffffffffffffffffffffffffffffffff1614156107fe576040517f08c379a00000000000000000000000000000000000000000000000000000000081526004016107f5906148c8565b60405180910390fd5b8073ffffffffffffffffffffffffffffffffffffffff1661081d6125c3565b73ffffffffffffffffffffffffffffffffffffffff16148061084c575061084b816108466125c3565b611d1e565b5b61088b576040517f08c379a0000000000000000000000000000000000000000000000000000000008152600401610882906147e8565b60405180910390fd5b61089583836125cb565b505050565b6108ab6108a56125c3565b82612684565b6108ea576040517f08c379a00000000000000000000000000000000000000000000000000000000081526004016108e1906148e8565b60405180910390fd5b6108f5838383612762565b505050565b6109158383836040518060200160405280600081525061104b565b505050565b6000806002600084815260200190815260200160002060009054906101000a900473ffffffffffffffffffffffffffffffffffffffff169050600073ffffffffffffffffffffffffffffffffffffffff168173ffffffffffffffffffffffffffffffffffffffff1614156109c3576040517f08c379a00000000000000000000000000000000000000000000000000000000081526004016109ba90614828565b60405180910390fd5b80915050919050565b60008073ffffffffffffffffffffffffffffffffffffffff168273ffffffffffffffffffffffffffffffffffffffff161415610a3d576040517f08c379a0000000000000000000000000000000000000000000000000000000008152600401610a3490614808565b60405180910390fd5b600360008373ffffffffffffffffffffffffffffffffffffffff1673ffffffffffffffffffffffffffffffffffffffff168152602001908152602001600020549050919050565b600e6020528060005260406000206000915090505481565b606060018054610aab90614ce3565b80601f0160208091040260200160405190810160405280929190818152602001828054610ad790614ce3565b8015610b245780601f10610af957610100808354040283529160200191610b24565b820191906000526020600020905b815481529060010190602001808311610b0757829003601f168201915b5050505050905090565b6008602052806000526040600020600091509050806000015490806001018054610b5790614ce3565b80601f0160208091040260200160405190810160405280929190818152602001828054610b8390614ce3565b8015610bd05780601f10610ba557610100808354040283529160200191610bd0565b820191906000526020600020905b815481529060010190602001808311610bb357829003601f168201915b505050505090806002018054610be590614ce3565b80601f0160208091040260200160405190810160405280929190818152602001828054610c1190614ce3565b8015610c5e5780601f10610c3357610100808354040283529160200191610c5e565b820191906000526020600020905b815481529060010190602001808311610c4157829003601f168201915b505050505090806003015490806004015490806005015490806006018054610c8590614ce3565b80601f0160208091040260200160405190810160405280929190818152602001828054610cb190614ce3565b8015610cfe5780601f10610cd357610100808354040283529160200191610cfe565b820191906000526020600020905b815481529060010190602001808311610ce157829003601f168201915b505050505090806007018054610d1390614ce3565b80601f0160208091040260200160405190810160405280929190818152602001828054610d3f90614ce3565b8015610d8c5780601f10610d6157610100808354040283529160200191610d8c565b820191906000526020600020905b815481529060010190602001808311610d6f57829003601f168201915b5050505050905088565b610d9e6125c3565b73ffffffffffffffffffffffffffffffffffffffff168273ffffffffffffffffffffffffffffffffffffffff161415610e0c576040517f08c379a0000000000000000000000000000000000000000000000000000000008152600401610e03906147a8565b60405180910390fd5b8060056000610e196125c3565b73ffffffffffffffffffffffffffffffffffffffff1673ffffffffffffffffffffffffffffffffffffffff16815260200190815260200160002060008473ffffffffffffffffffffffffffffffffffffffff1673ffffffffffffffffffffffffffffffffffffffff16815260200190815260200160002060006101000a81548160ff0219169083151502179055508173ffffffffffffffffffffffffffffffffffffffff16610ec66125c3565b73ffffffffffffffffffffffffffffffffffffffff167f17307eab39ab6107e8899845ad3d59bd9653f200f220920489ca2b5937696c3183604051610f0b919061450e565b60405180910390a35050565b6009806000018054610f2890614ce3565b80601f0160208091040260200160405190810160405280929190818152602001828054610f5490614ce3565b8015610fa15780601f10610f7657610100808354040283529160200191610fa1565b820191906000526020600020905b815481529060010190602001808311610f8457829003601f168201915b505050505090806001018054610fb690614ce3565b80601f0160208091040260200160405190810160405280929190818152602001828054610fe290614ce3565b801561102f5780601f106110045761010080835404028352916020019161102f565b820191906000526020600020905b81548152906001019060200180831161101257829003601f168201915b5050505050908060020154908060030154908060040154905085565b61105c6110566125c3565b83612684565b61109b576040517f08c379a0000000000000000000000000000000000000000000000000000000008152600401611092906148e8565b60405180910390fd5b6110a7848484846129be565b50505050565b60606007805480602002602001604051908101604052809291908181526020016000905b828210156113745783829060005260206000209060080201604051806101000160405290816000820154815260200160018201805461110f90614ce3565b80601f016020809104026020016040519081016040528092919081815260200182805461113b90614ce3565b80156111885780601f1061115d57610100808354040283529160200191611188565b820191906000526020600020905b81548152906001019060200180831161116b57829003601f168201915b505050505081526020016002820180546111a190614ce3565b80601f01602080910402602001604051908101604052809291908181526020018280546111cd90614ce3565b801561121a5780601f106111ef5761010080835404028352916020019161121a565b820191906000526020600020905b8154815290600101906020018083116111fd57829003601f168201915b5050505050815260200160038201548152602001600482015481526020016005820154815260200160068201805461125190614ce3565b80601f016020809104026020016040519081016040528092919081815260200182805461127d90614ce3565b80156112ca5780601f1061129f576101008083540402835291602001916112ca565b820191906000526020600020905b8154815290600101906020018083116112ad57829003601f168201915b505050505081526020016007820180546112e390614ce3565b80601f016020809104026020016040519081016040528092919081815260200182805461130f90614ce3565b801561135c5780601f106113315761010080835404028352916020019161135c565b820191906000526020600020905b81548152906001019060200180831161133f57829003601f168201915b505050505081525050815260200190600101906110d1565b50505050905090565b606060006008600084815260200190815260200160002060405180610100016040529081600082015481526020016001820180546113ba90614ce3565b80601f01602080910402602001604051908101604052809291908181526020018280546113e690614ce3565b80156114335780601f1061140857610100808354040283529160200191611433565b820191906000526020600020905b81548152906001019060200180831161141657829003601f168201915b5050505050815260200160028201805461144c90614ce3565b80601f016020809104026020016040519081016040528092919081815260200182805461147890614ce3565b80156114c55780601f1061149a576101008083540402835291602001916114c5565b820191906000526020600020905b8154815290600101906020018083116114a857829003601f168201915b505050505081526020016003820154815260200160048201548152602001600582015481526020016006820180546114fc90614ce3565b80601f016020809104026020016040519081016040528092919081815260200182805461152890614ce3565b80156115755780601f1061154a57610100808354040283529160200191611575565b820191906000526020600020905b81548152906001019060200180831161155857829003601f168201915b5050505050815260200160078201805461158e90614ce3565b80601f01602080910402602001604051908101604052809291908181526020018280546115ba90614ce3565b80156116075780601f106115dc57610100808354040283529160200191611607565b820191906000526020600020905b8154815290600101906020018083116115ea57829003601f168201915b505050505081525050905060006116218260600151612a1a565b905060006116328360800151612a1a565b905060006116438460a00151612a1a565b90506000611689856020015161165889612a1a565b876040015187878760405160200161167596959493929190614387565b604051602081830303815290604052612bc7565b905060008160405160200161169e919061442c565b6040516020818303038152906040529050809650505050505050919050565b6116c56133be565b6000600e60003373ffffffffffffffffffffffffffffffffffffffff1673ffffffffffffffffffffffffffffffffffffffff16815260200190815260200160002054905060008111156119a95760086000828152602001908152602001600020604051806101000160405290816000820154815260200160018201805461174b90614ce3565b80601f016020809104026020016040519081016040528092919081815260200182805461177790614ce3565b80156117c45780601f10611799576101008083540402835291602001916117c4565b820191906000526020600020905b8154815290600101906020018083116117a757829003601f168201915b505050505081526020016002820180546117dd90614ce3565b80601f016020809104026020016040519081016040528092919081815260200182805461180990614ce3565b80156118565780601f1061182b57610100808354040283529160200191611856565b820191906000526020600020905b81548152906001019060200180831161183957829003601f168201915b5050505050815260200160038201548152602001600482015481526020016005820154815260200160068201805461188d90614ce3565b80601f01602080910402602001604051908101604052809291908181526020018280546118b990614ce3565b80156119065780601f106118db57610100808354040283529160200191611906565b820191906000526020600020905b8154815290600101906020018083116118e957829003601f168201915b5050505050815260200160078201805461191f90614ce3565b80601f016020809104026020016040519081016040528092919081815260200182805461194b90614ce3565b80156119985780601f1061196d57610100808354040283529160200191611998565b820191906000526020600020905b81548152906001019060200180831161197b57829003601f168201915b5050505050815250509150506119b7565b6119b16133be565b80925050505b90565b6000600e60003373ffffffffffffffffffffffffffffffffffffffff1673ffffffffffffffffffffffffffffffffffffffff1681526020019081526020016000205490506000600860008381526020019081526020016000209050611acd6040518060600160405280603c8152602001614f4f603c9139826001018054611a4090614ce3565b80601f0160208091040260200160405190810160405280929190818152602001828054611a6c90614ce3565b8015611ab95780601f10611a8e57610100808354040283529160200191611ab9565b820191906000526020600020905b815481529060010190602001808311611a9c57829003601f168201915b505050505083600301548460050154612d85565b611ba56040518060400160405280601b81526020017f426f73732025732068617320257320485020616e64202573204144000000000081525060096000018054611b1690614ce3565b80601f0160208091040260200160405190810160405280929190818152602001828054611b4290614ce3565b8015611b8f5780601f10611b6457610100808354040283529160200191611b8f565b820191906000526020600020905b815481529060010190602001808311611b7257829003601f168201915b5050505050600960020154600960040154612d85565b6000816003015411611bec576040517f08c379a0000000000000000000000000000000000000000000000000000000008152600401611be390614848565b60405180910390fd5b600060096002015411611c34576040517f08c379a0000000000000000000000000000000000000000000000000000000008152600401611c2b90614748565b60405180910390fd5b80600501546009600201541015611c55576000600960020181905550611c74565b8060050154600960020154611c6a9190614bf9565b6009600201819055505b60096004015481600301541015611c945760008160030181905550611cb2565b6009600401548160030154611ca99190614bf9565b81600301819055505b611cd8604051806060016040528060288152602001614ef9602891398260030154612e27565b7f838ab28464562786a6c4ab2311964b82fa60bd9b14aa7e856af1f3f18d41a4146009600201548260030154604051611d12929190614a01565b60405180910390a15050565b6000600560008473ffffffffffffffffffffffffffffffffffffffff1673ffffffffffffffffffffffffffffffffffffffff16815260200190815260200160002060008373ffffffffffffffffffffffffffffffffffffffff1673ffffffffffffffffffffffffffffffffffffffff16815260200190815260200160002060009054906101000a900460ff16905092915050565b6000611dbe6006612ec3565b9050611dca3382612ed1565b60405180610100016040528083815260200160078481548110611e16577f4e487b7100000000000000000000000000000000000000000000000000000000600052603260045260246000fd5b90600052602060002090600802016001018054611e3290614ce3565b80601f0160208091040260200160405190810160405280929190818152602001828054611e5e90614ce3565b8015611eab5780601f10611e8057610100808354040283529160200191611eab565b820191906000526020600020905b815481529060010190602001808311611e8e57829003601f168201915b5050505050815260200160078481548110611eef577f4e487b7100000000000000000000000000000000000000000000000000000000600052603260045260246000fd5b90600052602060002090600802016002018054611f0b90614ce3565b80601f0160208091040260200160405190810160405280929190818152602001828054611f3790614ce3565b8015611f845780601f10611f5957610100808354040283529160200191611f84565b820191906000526020600020905b815481529060010190602001808311611f6757829003601f168201915b5050505050815260200160078481548110611fc8577f4e487b7100000000000000000000000000000000000000000000000000000000600052603260045260246000fd5b906000526020600020906008020160030154815260200160078481548110612019577f4e487b7100000000000000000000000000000000000000000000000000000000600052603260045260246000fd5b90600052602060002090600802016003015481526020016007848154811061206a577f4e487b7100000000000000000000000000000000000000000000000000000000600052603260045260246000fd5b9060005260206000209060080201600501548152602001600784815481106120bb577f4e487b7100000000000000000000000000000000000000000000000000000000600052603260045260246000fd5b906000526020600020906008020160060180546120d790614ce3565b80601f016020809104026020016040519081016040528092919081815260200182805461210390614ce3565b80156121505780601f1061212557610100808354040283529160200191612150565b820191906000526020600020905b81548152906001019060200180831161213357829003601f168201915b5050505050815260200160078481548110612194577f4e487b7100000000000000000000000000000000000000000000000000000000600052603260045260246000fd5b906000526020600020906008020160070180546121b090614ce3565b80601f01602080910402602001604051908101604052809291908181526020018280546121dc90614ce3565b80156122295780601f106121fe57610100808354040283529160200191612229565b820191906000526020600020905b81548152906001019060200180831161220c57829003601f168201915b50505050508152506008600083815260200190815260200160002060008201518160000155602082015181600101908051906020019061226a929190613403565b506040820151816002019080519060200190612287929190613403565b50606082015181600301556080820151816004015560a0820151816005015560c08201518160060190805190602001906122c2929190613403565b5060e08201518160070190805190602001906122df929190613403565b509050506123066040518060600160405280602e8152602001614f21602e91398284612eef565b80600e60003373ffffffffffffffffffffffffffffffffffffffff1673ffffffffffffffffffffffffffffffffffffffff1681526020019081526020016000208190555061235460066124d7565b7f4bc303fd457a97b4691b9af582ce71868a3d258638c8d4f8c60988a0f0bfb8cd338284604051612387939291906144b5565b60405180910390a15050565b61242f848484846040516024016123ad94939291906145ac565b6040516020818303038152906040527f8d142cdd000000000000000000000000000000000000000000000000000000007bffffffffffffffffffffffffffffffffffffffffffffffffffffffff19166020820180517bffffffffffffffffffffffffffffffffffffffffffffffffffffffff8381831617835250505050612f8e565b50505050565b6124d18484848460405160240161244f949392919061454b565b6040516020818303038152906040527fde68f20a000000000000000000000000000000000000000000000000000000007bffffffffffffffffffffffffffffffffffffffffffffffffffffffff19166020820180517bffffffffffffffffffffffffffffffffffffffffffffffffffffffff8381831617835250505050612f8e565b50505050565b6001816000016000828254019250508190555050565b60007f01ffc9a7000000000000000000000000000000000000000000000000000000007bffffffffffffffffffffffffffffffffffffffffffffffffffffffff1916827bffffffffffffffffffffffffffffffffffffffffffffffffffffffff1916149050919050565b60008073ffffffffffffffffffffffffffffffffffffffff166002600084815260200190815260200160002060009054906101000a900473ffffffffffffffffffffffffffffffffffffffff1673ffffffffffffffffffffffffffffffffffffffff1614159050919050565b600033905090565b816004600083815260200190815260200160002060006101000a81548173ffffffffffffffffffffffffffffffffffffffff021916908373ffffffffffffffffffffffffffffffffffffffff160217905550808273ffffffffffffffffffffffffffffffffffffffff1661263e8361091a565b73ffffffffffffffffffffffffffffffffffffffff167f8c5be1e5ebec7d5bd14f71427d1e84f3dd0314c0f7b2291e5b200ac8c7c3b92560405160405180910390a45050565b600061268f82612557565b6126ce576040517f08c379a00000000000000000000000000000000000000000000000000000000081526004016126c5906147c8565b60405180910390fd5b60006126d98361091a565b90508073ffffffffffffffffffffffffffffffffffffffff168473ffffffffffffffffffffffffffffffffffffffff16148061274857508373ffffffffffffffffffffffffffffffffffffffff16612730846106fd565b73ffffffffffffffffffffffffffffffffffffffff16145b8061275957506127588185611d1e565b5b91505092915050565b8273ffffffffffffffffffffffffffffffffffffffff166127828261091a565b73ffffffffffffffffffffffffffffffffffffffff16146127d8576040517f08c379a00000000000000000000000000000000000000000000000000000000081526004016127cf906148a8565b60405180910390fd5b600073ffffffffffffffffffffffffffffffffffffffff168273ffffffffffffffffffffffffffffffffffffffff161415612848576040517f08c379a000000000000000000000000000000000000000000000000000000000815260040161283f90614788565b60405180910390fd5b612853838383612fb7565b61285e6000826125cb565b6001600360008573ffffffffffffffffffffffffffffffffffffffff1673ffffffffffffffffffffffffffffffffffffffff16815260200190815260200160002060008282546128ae9190614bf9565b925050819055506001600360008473ffffffffffffffffffffffffffffffffffffffff1673ffffffffffffffffffffffffffffffffffffffff16815260200190815260200160002060008282546129059190614b18565b92505081905550816002600083815260200190815260200160002060006101000a81548173ffffffffffffffffffffffffffffffffffffffff021916908373ffffffffffffffffffffffffffffffffffffffff160217905550808273ffffffffffffffffffffffffffffffffffffffff168473ffffffffffffffffffffffffffffffffffffffff167fddf252ad1be2c89b69c2b068fc378daa952ba7f163c4a11628f55a4df523b3ef60405160405180910390a4505050565b6129c9848484612762565b6129d584848484612fbc565b612a14576040517f08c379a0000000000000000000000000000000000000000000000000000000008152600401612a0b90614728565b60405180910390fd5b50505050565b60606000821415612a62576040518060400160405280600181526020017f30000000000000000000000000000000000000000000000000000000000000008152509050612bc2565b600082905060005b60008214612a94578080612a7d90614d15565b915050600a82612a8d9190614b6e565b9150612a6a565b60008167ffffffffffffffff811115612ad6577f4e487b7100000000000000000000000000000000000000000000000000000000600052604160045260246000fd5b6040519080825280601f01601f191660200182016040528015612b085781602001600182028036833780820191505090505b5090505b60008514612bbb57600182612b219190614bf9565b9150600a85612b309190614d5e565b6030612b3c9190614b18565b60f81b818381518110612b78577f4e487b7100000000000000000000000000000000000000000000000000000000600052603260045260246000fd5b60200101907effffffffffffffffffffffffffffffffffffffffffffffffffffffffffffff1916908160001a905350600a85612bb49190614b6e565b9450612b0c565b8093505050505b919050565b60606000825190506000811415612bf05760405180602001604052806000815250915050612d80565b60006003600283612c019190614b18565b612c0b9190614b6e565b6004612c179190614b9f565b90506000602082612c289190614b18565b67ffffffffffffffff811115612c67577f4e487b7100000000000000000000000000000000000000000000000000000000600052604160045260246000fd5b6040519080825280601f01601f191660200182016040528015612c995781602001600182028036833780820191505090505b5090506000604051806060016040528060408152602001614eb9604091399050600181016020830160005b86811015612d3d5760038101905062ffffff818a015116603f8160121c168401518060081b905060ff603f83600c1c1686015116810190508060081b905060ff603f8360061c1686015116810190508060081b905060ff603f831686015116810190508060e01b90508084526004840193505050612cc4565b506003860660018114612d575760028114612d6757612d72565b613d3d60f01b6002830352612d72565b603d60f81b60018303525b508484525050819450505050505b919050565b612e2184848484604051602401612d9f9493929190614606565b6040516020818303038152906040527fd5cf17d0000000000000000000000000000000000000000000000000000000007bffffffffffffffffffffffffffffffffffffffffffffffffffffffff19166020820180517bffffffffffffffffffffffffffffffffffffffffffffffffffffffff8381831617835250505050612f8e565b50505050565b612ebf8282604051602401612e3d9291906146ba565b6040516020818303038152906040527f9710a9d0000000000000000000000000000000000000000000000000000000007bffffffffffffffffffffffffffffffffffffffffffffffffffffffff19166020820180517bffffffffffffffffffffffffffffffffffffffffffffffffffffffff8381831617835250505050612f8e565b5050565b600081600001549050919050565b612eeb828260405180602001604052806000815250613153565b5050565b612f89838383604051602401612f07939291906146ea565b6040516020818303038152906040527f969cdd03000000000000000000000000000000000000000000000000000000007bffffffffffffffffffffffffffffffffffffffffffffffffffffffff19166020820180517bffffffffffffffffffffffffffffffffffffffffffffffffffffffff8381831617835250505050612f8e565b505050565b60008151905060006a636f6e736f6c652e6c6f679050602083016000808483855afa5050505050565b505050565b6000612fdd8473ffffffffffffffffffffffffffffffffffffffff166131ae565b15613146578373ffffffffffffffffffffffffffffffffffffffff1663150b7a026130066125c3565b8786866040518563ffffffff1660e01b81526004016130289493929190614469565b602060405180830381600087803b15801561304257600080fd5b505af192505050801561307357506040513d601f19601f820116820180604052508101906130709190613747565b60015b6130f6573d80600081146130a3576040519150601f19603f3d011682016040523d82523d6000602084013e6130a8565b606091505b506000815114156130ee576040517f08c379a00000000000000000000000000000000000000000000000000000000081526004016130e590614728565b60405180910390fd5b805181602001fd5b63150b7a0260e01b7bffffffffffffffffffffffffffffffffffffffffffffffffffffffff1916817bffffffffffffffffffffffffffffffffffffffffffffffffffffffff19161491505061314b565b600190505b949350505050565b61315d83836131c1565b61316a6000848484612fbc565b6131a9576040517f08c379a00000000000000000000000000000000000000000000000000000000081526004016131a090614728565b60405180910390fd5b505050565b600080823b905060008111915050919050565b600073ffffffffffffffffffffffffffffffffffffffff168273ffffffffffffffffffffffffffffffffffffffff161415613231576040517f08c379a000000000000000000000000000000000000000000000000000000000815260040161322890614868565b60405180910390fd5b61323a81612557565b1561327a576040517f08c379a000000000000000000000000000000000000000000000000000000000815260040161327190614768565b60405180910390fd5b61328660008383612fb7565b6001600360008473ffffffffffffffffffffffffffffffffffffffff1673ffffffffffffffffffffffffffffffffffffffff16815260200190815260200160002060008282546132d69190614b18565b92505081905550816002600083815260200190815260200160002060006101000a81548173ffffffffffffffffffffffffffffffffffffffff021916908373ffffffffffffffffffffffffffffffffffffffff160217905550808273ffffffffffffffffffffffffffffffffffffffff16600073ffffffffffffffffffffffffffffffffffffffff167fddf252ad1be2c89b69c2b068fc378daa952ba7f163c4a11628f55a4df523b3ef60405160405180910390a45050565b6040518060a0016040528060608152602001606081526020016000815260200160008152602001600081525090565b60405180610100016040528060008152602001606081526020016060815260200160008152602001600081526020016000815260200160608152602001606081525090565b82805461340f90614ce3565b90600052602060002090601f0160209004810192826134315760008555613478565b82601f1061344a57805160ff1916838001178555613478565b82800160010185558215613478579182015b8281111561347757825182559160200191906001019061345c565b5b5090506134859190613489565b5090565b5b808211156134a257600081600090555060010161348a565b5090565b60006134b96134b484614a5b565b614a2a565b9050828152602081018484840111156134d157600080fd5b6134dc848285614ca1565b509392505050565b6000813590506134f381614e5c565b92915050565b60008135905061350881614e73565b92915050565b60008135905061351d81614e8a565b92915050565b60008151905061353281614e8a565b92915050565b600082601f83011261354957600080fd5b81356135598482602086016134a6565b91505092915050565b60008135905061357181614ea1565b92915050565b60006020828403121561358957600080fd5b6000613597848285016134e4565b91505092915050565b600080604083850312156135b357600080fd5b60006135c1858286016134e4565b92505060206135d2858286016134e4565b9150509250929050565b6000806000606084860312156135f157600080fd5b60006135ff868287016134e4565b9350506020613610868287016134e4565b925050604061362186828701613562565b9150509250925092565b6000806000806080858703121561364157600080fd5b600061364f878288016134e4565b9450506020613660878288016134e4565b935050604061367187828801613562565b925050606085013567ffffffffffffffff81111561368e57600080fd5b61369a87828801613538565b91505092959194509250565b600080604083850312156136b957600080fd5b60006136c7858286016134e4565b92505060206136d8858286016134f9565b9150509250929050565b600080604083850312156136f557600080fd5b6000613703858286016134e4565b925050602061371485828601613562565b9150509250929050565b60006020828403121561373057600080fd5b600061373e8482850161350e565b91505092915050565b60006020828403121561375957600080fd5b600061376784828501613523565b91505092915050565b60006020828403121561378257600080fd5b600061379084828501613562565b91505092915050565b60006137a583836141df565b905092915050565b6137b681614c2d565b82525050565b60006137c782614a9b565b6137d18185614ac9565b9350836020820285016137e385614a8b565b8060005b8581101561381f57848403895281516138008582613799565b945061380b83614abc565b925060208a019950506001810190506137e7565b50829750879550505050505092915050565b61383a81614c3f565b82525050565b600061384b82614aa6565b6138558185614ada565b9350613865818560208601614cb0565b61386e81614e4b565b840191505092915050565b600061388482614ab1565b61388e8185614aeb565b935061389e818560208601614cb0565b6138a781614e4b565b840191505092915050565b60006138bd82614ab1565b6138c78185614afc565b93506138d7818560208601614cb0565b6138e081614e4b565b840191505092915050565b60006138f682614ab1565b6139008185614b0d565b9350613910818560208601614cb0565b80840191505092915050565b6000613929600b83614b0d565b91507f202d2d204e465420233a200000000000000000000000000000000000000000006000830152600b82019050919050565b6000613969603283614afc565b91507f4552433732313a207472616e7366657220746f206e6f6e20455243373231526560008301527f63656976657220696d706c656d656e74657200000000000000000000000000006020830152604082019050919050565b60006139cf602883614afc565b91507f4572726f723a20626f7373206d757374206861766520485020746f206174746160008301527f636b20626f73732e0000000000000000000000000000000000000000000000006020830152604082019050919050565b6000613a35601c83614afc565b91507f4552433732313a20746f6b656e20616c7265616479206d696e746564000000006000830152602082019050919050565b6000613a75600e83614b0d565b91507f2c20226d61785f76616c7565223a0000000000000000000000000000000000006000830152600e82019050919050565b6000613ab5602483614afc565b91507f4552433732313a207472616e7366657220746f20746865207a65726f2061646460008301527f72657373000000000000000000000000000000000000000000000000000000006020830152604082019050919050565b6000613b1b601983614afc565b91507f4552433732313a20617070726f766520746f2063616c6c6572000000000000006000830152602082019050919050565b6000613b5b602c83614afc565b91507f4552433732313a206f70657261746f7220717565727920666f72206e6f6e657860008301527f697374656e7420746f6b656e00000000000000000000000000000000000000006020830152604082019050919050565b6000613bc1603883614afc565b91507f4552433732313a20617070726f76652063616c6c6572206973206e6f74206f7760008301527f6e6572206e6f7220617070726f76656420666f7220616c6c00000000000000006020830152604082019050919050565b6000613c27602a83614afc565b91507f4552433732313a2062616c616e636520717565727920666f7220746865207a6560008301527f726f2061646472657373000000000000000000000000000000000000000000006020830152604082019050919050565b6000613c8d602983614afc565b91507f4552433732313a206f776e657220717565727920666f72206e6f6e657869737460008301527f656e7420746f6b656e00000000000000000000000000000000000000000000006020830152604082019050919050565b6000613cf3606283614b0d565b91507f222c20226465736372697074696f6e223a20225468697320697320616e204e4660008301527f542074686174206c6574732070656f706c6520706c617920696e20746865206760208301527f616d65204d657461766572736520536c6179657221222c2022696d616765223a60408301527f20220000000000000000000000000000000000000000000000000000000000006060830152606282019050919050565b6000613da5602d83614afc565b91507f4572726f723a20636861726163746572206d757374206861766520485020746f60008301527f2061747461636b20626f73732e000000000000000000000000000000000000006020830152604082019050919050565b6000613e0b600483614b0d565b91507f7d205d7d000000000000000000000000000000000000000000000000000000006000830152600482019050919050565b6000613e4b602083614afc565b91507f4552433732313a206d696e7420746f20746865207a65726f20616464726573736000830152602082019050919050565b6000613e8b602c83614afc565b91507f4552433732313a20617070726f76656420717565727920666f72206e6f6e657860008301527f697374656e7420746f6b656e00000000000000000000000000000000000000006020830152604082019050919050565b6000613ef1602983614afc565b91507f4552433732313a207472616e73666572206f6620746f6b656e2074686174206960008301527f73206e6f74206f776e00000000000000000000000000000000000000000000006020830152604082019050919050565b6000613f57600a83614b0d565b91507f7b226e616d65223a2022000000000000000000000000000000000000000000006000830152600a82019050919050565b6000613f97602183614afc565b91507f4552433732313a20617070726f76616c20746f2063757272656e74206f776e6560008301527f72000000000000000000000000000000000000000000000000000000000000006020830152604082019050919050565b6000613ffd601d83614b0d565b91507f646174613a6170706c69636174696f6e2f6a736f6e3b6261736536342c0000006000830152601d82019050919050565b600061403d603183614afc565b91507f4552433732313a207472616e736665722063616c6c6572206973206e6f74206f60008301527f776e6572206e6f7220617070726f7665640000000000000000000000000000006020830152604082019050919050565b60006140a3603d83614b0d565b91507f222c202261747472696275746573223a205b207b202274726169745f7479706560008301527f223a20224865616c746820506f696e7473222c202276616c7565223a200000006020830152603d82019050919050565b6000614109602d83614b0d565b91507f7d2c207b202274726169745f74797065223a202241747461636b2044616d616760008301527f65222c202276616c7565223a20000000000000000000000000000000000000006020830152602d82019050919050565b600060a083016000830151848203600086015261417f8282613879565b915050602083015184820360208601526141998282613879565b91505060408301516141ae6040860182614369565b5060608301516141c16060860182614369565b5060808301516141d46080860182614369565b508091505092915050565b6000610100830160008301516141f86000860182614369565b50602083015184820360208601526142108282613879565b9150506040830151848203604086015261422a8282613879565b915050606083015161423f6060860182614369565b5060808301516142526080860182614369565b5060a083015161426560a0860182614369565b5060c083015184820360c086015261427d8282613879565b91505060e083015184820360e08601526142978282613879565b9150508091505092915050565b6000610100830160008301516142bd6000860182614369565b50602083015184820360208601526142d58282613879565b915050604083015184820360408601526142ef8282613879565b91505060608301516143046060860182614369565b5060808301516143176080860182614369565b5060a083015161432a60a0860182614369565b5060c083015184820360c08601526143428282613879565b91505060e083015184820360e086015261435c8282613879565b9150508091505092915050565b61437281614c97565b82525050565b61438181614c97565b82525050565b600061439282613f4a565b915061439e82896138eb565b91506143a98261391c565b91506143b582886138eb565b91506143c082613ce6565b91506143cc82876138eb565b91506143d782614096565b91506143e382866138eb565b91506143ee82613a68565b91506143fa82856138eb565b9150614405826140fc565b915061441182846138eb565b915061441c82613dfe565b9150819050979650505050505050565b600061443782613ff0565b915061444382846138eb565b915081905092915050565b600060208201905061446360008301846137ad565b92915050565b600060808201905061447e60008301876137ad565b61448b60208301866137ad565b6144986040830185614378565b81810360608301526144aa8184613840565b905095945050505050565b60006060820190506144ca60008301866137ad565b6144d76020830185614378565b6144e46040830184614378565b949350505050565b6000602082019050818103600083015261450681846137bc565b905092915050565b60006020820190506145236000830184613831565b92915050565b6000602082019050818103600083015261454381846138b2565b905092915050565b6000608082019050818103600083015261456581876138b2565b9050818103602083015261457981866138b2565b9050818103604083015261458d81856138b2565b905081810360608301526145a181846138b2565b905095945050505050565b600060808201905081810360008301526145c681876138b2565b905081810360208301526145da81866138b2565b90506145e96040830185614378565b81810360608301526145fb81846138b2565b905095945050505050565b6000608082019050818103600083015261462081876138b2565b9050818103602083015261463481866138b2565b90506146436040830185614378565b6146506060830184614378565b95945050505050565b600060a082019050818103600083015261467381886138b2565b9050818103602083015261468781876138b2565b90506146966040830186614378565b6146a36060830185614378565b6146b06080830184614378565b9695505050505050565b600060408201905081810360008301526146d481856138b2565b90506146e36020830184614378565b9392505050565b6000606082019050818103600083015261470481866138b2565b90506147136020830185614378565b6147206040830184614378565b949350505050565b600060208201905081810360008301526147418161395c565b9050919050565b60006020820190508181036000830152614761816139c2565b9050919050565b6000602082019050818103600083015261478181613a28565b9050919050565b600060208201905081810360008301526147a181613aa8565b9050919050565b600060208201905081810360008301526147c181613b0e565b9050919050565b600060208201905081810360008301526147e181613b4e565b9050919050565b6000602082019050818103600083015261480181613bb4565b9050919050565b6000602082019050818103600083015261482181613c1a565b9050919050565b6000602082019050818103600083015261484181613c80565b9050919050565b6000602082019050818103600083015261486181613d98565b9050919050565b6000602082019050818103600083015261488181613e3e565b9050919050565b600060208201905081810360008301526148a181613e7e565b9050919050565b600060208201905081810360008301526148c181613ee4565b9050919050565b600060208201905081810360008301526148e181613f8a565b9050919050565b6000602082019050818103600083015261490181614030565b9050919050565b600060208201905081810360008301526149228184614162565b905092915050565b6000602082019050818103600083015261494481846142a4565b905092915050565b60006020820190506149616000830184614378565b92915050565b60006101008201905061497d600083018b614378565b818103602083015261498f818a6138b2565b905081810360408301526149a381896138b2565b90506149b26060830188614378565b6149bf6080830187614378565b6149cc60a0830186614378565b81810360c08301526149de81856138b2565b905081810360e08301526149f281846138b2565b90509998505050505050505050565b6000604082019050614a166000830185614378565b614a236020830184614378565b9392505050565b6000604051905081810181811067ffffffffffffffff82111715614a5157614a50614e1c565b5b8060405250919050565b600067ffffffffffffffff821115614a7657614a75614e1c565b5b601f19601f8301169050602081019050919050565b6000819050602082019050919050565b600081519050919050565b600081519050919050565b600081519050919050565b6000602082019050919050565b600082825260208201905092915050565b600082825260208201905092915050565b600082825260208201905092915050565b600082825260208201905092915050565b600081905092915050565b6000614b2382614c97565b9150614b2e83614c97565b9250827fffffffffffffffffffffffffffffffffffffffffffffffffffffffffffffffff03821115614b6357614b62614d8f565b5b828201905092915050565b6000614b7982614c97565b9150614b8483614c97565b925082614b9457614b93614dbe565b5b828204905092915050565b6000614baa82614c97565b9150614bb583614c97565b9250817fffffffffffffffffffffffffffffffffffffffffffffffffffffffffffffffff0483118215151615614bee57614bed614d8f565b5b828202905092915050565b6000614c0482614c97565b9150614c0f83614c97565b925082821015614c2257614c21614d8f565b5b828203905092915050565b6000614c3882614c77565b9050919050565b60008115159050919050565b60007fffffffff0000000000000000000000000000000000000000000000000000000082169050919050565b600073ffffffffffffffffffffffffffffffffffffffff82169050919050565b6000819050919050565b82818337600083830152505050565b60005b83811015614cce578082015181840152602081019050614cb3565b83811115614cdd576000848401525b50505050565b60006002820490506001821680614cfb57607f821691505b60208210811415614d0f57614d0e614ded565b5b50919050565b6000614d2082614c97565b91507fffffffffffffffffffffffffffffffffffffffffffffffffffffffffffffffff821415614d5357614d52614d8f565b5b600182019050919050565b6000614d6982614c97565b9150614d7483614c97565b925082614d8457614d83614dbe565b5b828206905092915050565b7f4e487b7100000000000000000000000000000000000000000000000000000000600052601160045260246000fd5b7f4e487b7100000000000000000000000000000000000000000000000000000000600052601260045260246000fd5b7f4e487b7100000000000000000000000000000000000000000000000000000000600052602260045260246000fd5b7f4e487b7100000000000000000000000000000000000000000000000000000000600052604160045260246000fd5b6000601f19601f8301169050919050565b614e6581614c2d565b8114614e7057600080fd5b50565b614e7c81614c3f565b8114614e8757600080fd5b50565b614e9381614c4b565b8114614e9e57600080fd5b50565b614eaa81614c97565b8114614eb557600080fd5b5056fe4142434445464748494a4b4c4d4e4f505152535455565758595a6162636465666768696a6b6c6d6e6f707172737475767778797a303132333435363738392b2f426f73732061747461636b656420706c617965722e204e657720706c617965722068703a2025730a4d696e746564204e465420772f20746f6b656e496420257320616e6420636861726163746572496e6465782025730a506c6179657220772f206368617261637465722025732061626f757420746f2061747461636b2e2048617320257320485020616e64202573204144a264697066735822122085b1ffab99052fdcb04416d7e19a02212565d64c115325a9857b0a136f7803ad64736f6c63430008000033446f6e6520696e697469616c697a696e6720257320772f2044656661756c744162696c6974792025732c20556c74696d6174654162696c697479202573446f6e6520696e697469616c697a696e6720626f737320257320772f2048502025732c20696d67202573",
  "linkReferences": {},
  "deployedLinkReferences": {}
}